:020000040800F2
:1000000088080020A5030008810300088303000876
:10001000850300088703000889030008000000002A
:100020000000000000000000000000008B0300083A
:100030008D030008000000008F03000891030008F2
:10004000B5030008B9030008BD030008C103000898
:10005000C5030008C9030008CD030008D103000848
:10006000D5030008D9030008DD030008E1030008F8
:10007000E5030008E9030008ED030008F1030008A8
:10008000F50300083D020008F9030008FD0300081D
:100090000104000805040008090400080D04000814
:1000A0001104000815040008190400081D040008C4
:1000B0004302000821040008250400082904000860
:1000C0002D04000831040008350400083904000834
:1000D0003D040008410400084504000849040008E4
:1000E0004D040008510400085504000830B4C16BE9
:1000F0000A6801680B68046C0425A5402A4233D0C5
:100100005D0731D50A68930603D40A6822F0040219
:100110000A600168424A914208BF04211DD0414A49
:10012000914208BF402118D03F4A914208BF4FF486
:10013000806112D03D4A914208BF4FF480410CD0FB
:100140003B4A914208BF4FF4802106D0394A914280
:100150000CBF4FF480014FF08061374A1160C16AD3
:10016000002959D030BC08470225A5402A4238D082
:100170009D0736D50A68930606D40A6822F00A025B
:100180000A60012180F821100168254A914208BFC8
:1001900002211DD0234A914208BF202118D0224AB3
:1001A000914208BF4FF4007112D0204A914208BF1B
:1001B0004FF400510CD01E4A914208BF4FF4003159
:1001C00006D01C4A91420CBF4FF400114FF0007151
:1001D000194A1160002180F82010816AE1B130BC19
:1001E0000847082505FA04F4224215D01A0713D54A
:1001F0000B6823F00E030B600122016CC36B8A4075
:100200005A600121816380F82110002180F82010BC
:10021000016B09B130BC084730BC704700000000DA
:10022000080002401C00024030000240440002402E
:10023000580002406C000240040002401148FFF7E1
:1002400055BF00B581B01C2000F01EF80C48D0F856
:100250002C140A6A41F211131A4202BF0A6A40F2D0
:1002600044431A4203D10A68520852000A60CA681D
:1002700052085200CA60042180F8741401B000BD15
:100280000C00002094000020010007D4012200F09F
:100290001F01034B8A40400943F8202070470000AB
:1002A00080E200E030B5016884684218416802EBE2
:1002B0005103C90703D54C4401E0491C08D19A42B7
:1002C00018BF12F9011B01D10C3030BD12F8015BCF
:1002D000002904F8015BF0D4491EF7D5EFE70000D0
:1002E00010B5074979441831064C7C44163404E0B3
:1002F0000A68081D114488470146A142F8D110BD83
:1003000008000000140000009DFFFFFF50010000E6
:10031000340000000000002000F00DF8002801D09B
:10032000FFF7DEFFAFF300800020AFF3008000F0A6
:1003300004F800F004F8012070470020704700F036
:1003400001B800000746384600F002F8FBE700005D
:1003500080B5AFF30080024A11001820ABBEFBE766
:10036000260002000548014603B4684680F3098868
:10037000AFF30080AFF30080FFF7CEFFA5EDF5FEF1
:10038000FEE7FEE7FEE7FEE7FEE7704770477047CF
:1003900000F000B802494A68087882184A6070473D
:1003A0000000002001488047014800475904000828
:1003B00065030008FFF7FEBFFFF7FEBFFFF7FEBFB4
:1003C000FFF7FEBFFFF7FEBFFFF7FEBFFFF7FEBF61
:1003D000FFF7FEBFFFF7FEBFFFF7FEBFFFF7FEBF51
:1003E000FFF7FEBFFFF7FEBFFFF7FEBFFFF7FEBF41
:1003F000FFF7FEBFFFF7FEBFFFF7FEBFFFF7FEBF31
:10040000FFF7FEBFFFF7FEBFFFF7FEBFFFF7FEBF20
:10041000FFF7FEBFFFF7FEBFFFF7FEBFFFF7FEBF10
:10042000FFF7FEBFFFF7FEBFFFF7FEBFFFF7FEBF00
:10043000FFF7FEBFFFF7FEBFFFF7FEBFFFF7FEBFF0
:10044000FFF7FEBFFFF7FEBFFFF7FEBFFFF7FEBFE0
:10045000FFF7FEBFFFF7FEBF704700000001F90085
:1004600000108100810081008100810081008100F5
:060470008100810000057F
:040000050800036587
:00000001FF
