:020000040800F2
:10000000180900201D150008E5140008E714000871
:10001000E9140008EB140008ED14000800000000CB
:10002000000000000000000000000000EF140008C5
:10003000F114000800000000F3140008F514000893
:100040002D15000831150008351500083915000870
:100050003D15000841150008451500084915000820
:100060004D150008511500085515000859150008D0
:100070005D15000861150008651500086915000880
:100080006D150008C10900087115000875150008F4
:10009000791500087D1500088115000885150008F0
:1000A000891500088D1500089115000895150008A0
:1000B000C7090008991500089D150008A11500083A
:1000C000A5150008A9150008AD150008B115000810
:1000D000B5150008B9150008BD150008C1150008C0
:1000E000C5150008C9150008CD1500082DE9FC410B
:1000F000040000F087812078DFF86464C10713D51D
:10010000706800F00C00042807D0706800F00C0044
:10011000082841D17068C1033ED53068810303D5FA
:100120006068002800F06E812178880719D5716811
:1001300011F00C0F07D0706800F00C00082863D194
:100140007068C10360D43068810703D52069012835
:1001500040F058813168606921F0F80141EAC0013E
:1001600031602178080740F18580A069DFF800142C
:10017000002800F0A6800122C1F8802400F02AFAAD
:100180000546706A810766D400F024FA401B0228F5
:10019000F7D90320BDE8F6816068B0F5803F04D14F
:1001A000306840F48030306014E008B930680AE00C
:1001B000B0F5A02F306806D140F48020306031685F
:1001C00041F4803105E020F480303060316821F462
:1001D00080213160606858B100F0FCF90546306854
:1001E0008103A1D400F0F6F9401B6528F7D3D0E7CE
:1001F00000F0F0F905463068810395D500F0EAF982
:10020000401B6528F7D3C4E72069DFF86413A8B161
:1002100001220A6000F0DEF905463068810705D446
:1002200000F0D8F9401B0228F7D9B2E730686169BD
:1002300020F0F80040EAC100306092E7086000F06A
:10024000C9F90546316888078BD500F0C3F9401B12
:100250000228F7D99DE7DFF80C030168C9084FF4BD
:100260007A72B1FBF2F2009200BF0098411E0028A2
:100270000091F9D1207841076FD5F0690025C100C0
:1002800009D4F06940F08050F0610125F06900F078
:10029000805000900098DFF8DC723868C1051ED4E9
:1002A000386840F48070386000F094F9804638680F
:1002B000C10514D400F08EF9A0EB08006528F6D330
:1002C00067E7C1F8800400F085F90546706A810788
:1002D000D0D500F07FF9401B0228F7D959E7E06834
:1002E000012803D1306A40F0010012E008B9306AF9
:1002F00009E00528306A06D140F004003062306A17
:1003000040F0010005E0400840003062306A20F013
:100310000400306241F28937E06860B100F05AF9B8
:100320008046306A810713D400F054F9A0EB08002E
:10033000B842F6D32DE700F04DF98046306A8107C8
:1003400006D500F047F9A0EB0800B842F6D320E745
:100350001DB1F06920F08050F061E069002854D0B0
:10036000716801F00C0108293FD00228DFF8005223
:100370002DD10020286600F02DF907463068810154
:1003800005D500F027F9C01B0228F7D901E7206A3C
:10039000B0F5803F05D17168A06821F400310143B8
:1003A00071607268206A616A22F4741202430A431F
:1003B00072600120286600F00DF904463068810162
:1003C00023D400F007F9001B0228F7D9E1E600204A
:1003D000286600F0FFF804463068810115D500F06A
:1003E000F9F8001B0228F7D9D3E601280AD0706873
:1003F000226A00F48031914202BF00F47010616AF9
:10040000884202D00120BDE8F6810020BDE8F681D7
:100410002DE9F843040088465FD0574E306800F05D
:100420000700404509D23168C90848EAC101316076
:10043000306800F0070040454FD12068484D8107E3
:1004400012D5400703D5696841F4E06169602078FE
:10045000010703D5686840F4605068606968A06867
:1004600021F0F001014369602178C80726D5606852
:10047000012802D129688A0303E00228296802D1F1
:100480008A0102D429E08A0727D56968890840EAE9
:100490008100686041F2893900F09CF8074668687D
:1004A000616800F00C00B0EB810F07D000F092F80B
:1004B000C01B4845F3D30320BDE8F283306800F049
:1004C000070080450CD23168C90848EAC101316093
:1004D000306800F00700404502D00120BDE8F283FB
:1004E0002078410705D56A68E06822F4E06202439B
:1004F0006A602178080706D56968206921F460518F
:1005000041EAC001696000F00FF86A681B49154BA9
:10051000C2F30312895CC84018601448006800F0F8
:100520005FF80020BDE8F28315490A6802F00C006C
:10053000082812D114A3C2F38340D203185C09D552
:100540000A68094914A34843C2F340415A5CB0FB0E
:10055000F2F070470B49484370470348704700006A
:10056000001002400C00002000127A000800002059
:100570000000424200700040002002400C150008BC
:100580000410024000093D000203040506070809A3
:100590000A0B0C0D0E0F1010010230B501688468B3
:1005A0004218416802EB5103C90703D54C4401E0EE
:1005B000491C08D19A4218BF12F9011B01D10C3015
:1005C00030BD12F8015B002904F8015BF0D4491E2C
:1005D000F7D5EFE701484068704700BF00000020F2
:1005E00038B50D4D0D4B2A7804464FF47A711868D2
:1005F000B1FBF2F2B0FBF2F000F057F850B9102C5A
:1006000008D2002221464FF0FF3000F016F8AC600F
:10061000002032BD012032BD000000200C0000206F
:10062000304B19684FF6FF020002114000F4E06001
:1006300008432D4908431860704730B4294B1C68A3
:10064000C4F30223C3F10705052D28BF0F2405D2EB
:100650000125C3F1070405FA04F4641E1D1D072DCE
:1006600034BF0023DB1E21409940012404FA03F328
:100670005B1E1A4011430901020003D41B48815438
:1006800030BC70471A4B02F00F021A4402F8041CE7
:1006900030BC7047010007D4012200F01F01154B48
:1006A0008A40400943F820207047401EB0F1807F07
:1006B00001D30120704710494860F02081F8130DE4
:1006C00000228A600720086000207047010007D4DC
:1006D000012200F01F01094B8A40400943F8202005
:1006E000704700000CED00E00000FA0500E400E0B7
:1006F00018ED00E000E100E010E000E080E200E042
:100700002DE9F04190B0DFF85484D8F8FC0F40F0A8
:100710000400C8F8FC0FD8F8FC0F00F004000090AB
:100720000098012000900190032003900020029087
:100730006946DFF82C0400F027FAD8F8F80F40F0EB
:100740000100C8F8F80FD8F8F80F00F00100009089
:100750000098DFF81044C4F800801020606000208A
:10076000A060E060A0614FF4807626614FF480675E
:1007700067614FF40055E561204600F0DBFA002880
:1007800040F08C8008F13C0060641020A0640020E0
:10079000E064802020650020E0656665A765256629
:1007A00004F1440000F0C6FA002877D108F1640093
:1007B000C4F888001020C4F88C000020C4F8900011
:1007C000C4F89400C4F8A000C4F89860C4F89C7001
:1007D000C4F8A45004F1880000F0ACFA00285DD100
:1007E0000FF22122002104F1880000F081FB0FF2BA
:1007F0009122022104F1880000F07AFB01220021FD
:100800001120FFF71AFF1120FFF744FFD6480168B7
:1008100041F001010160006800F0010000900098C3
:100820004FF08040C4F82C041D20C4F83804CF4891
:100830000068CF49B0FBF1F0401E80B2C4F830042C
:100840000020C4F83C04C4F8340404F22C4000F046
:1008500073FB18BB08900A9008200990002208A991
:1008600004F22C4000F09AFBC0B9019003901520CF
:100870000290042201A904F22C4000F08FFB68B919
:10088000022200211C20FFF7D8FE1C20FFF702FFE8
:10089000042084F8740410B0BDE8F081012084F8CD
:1008A000740410B0BDE8F08170B5AE4C94F87404D7
:1008B0000428FBD1022084F874044FF080411D20ED
:1008C000C8620122206C02FA00F0E36B58602368D2
:1008D0004FF4D8755D606068102803D1A548986012
:1008E000A7A002E0A6A09860A248D860D4F884002F
:1008F00002FA00F0D4F880607060666C7560A06CDD
:10090000102804D19B48B06004F1CC0003E004F14E
:10091000CC00B0609748F060D4F8C8008240D4F8AA
:10092000C4004260D4F888004560D4F88C20102AB6
:1009300004D1904A826000BF92A202E091A282603C
:100940008C4AC2608C4AF02515604FF47025156002
:100950004FF070651560026842F00E0202601A687E
:1009600042F001021A60326842F00102326002680D
:1009700042F00102026000200861D4F82C04C16832
:1009800041F48071C160C16841F40071C160C16807
:1009900041F48061C160012200214FF0804000F0ED
:1009A000F3FB012204214FF0804000F0EDFBD4F86E
:1009B0002C041D214162016841F00101016070BDFC
:1009C0006E4800F0E9B900B581B01C20FFF77EFE4B
:1009D0006448D0F82C140A6A41F211131A4202BF7B
:1009E0000A6A40F244431A4203D10A68520852008C
:1009F0000A60CA6852085200CA60042180F8741460
:100A000001B000BD10B51120FFF760FE554C206805
:100A10000168490849000160606C016849084900A3
:100A20000160D4F888000168490849000160D4F8E1
:100A30002C04C16821F48071C160C16821F4007187
:100A4000C160C16821F48061C160002200214FF0C3
:100A5000804000F099FB002204214FF0804000F01C
:100A600093FB4FF0804040F2DC51C16200214162B3
:100A7000D4F82C04C16841F00101C16010BD000030
:100A8000FEE70000DFF8DC0090F874140429FBD1C5
:100A900000F1CC0212214FF6FE7C042013880CEAF0
:100AA00003031380138A0CEA03031382138C0CEAEA
:100AB0000303138453880CEA03035380538A0CEA1C
:100AC00003035382538C0CEA03035384121D401E0C
:100AD000E4D12032491EE0D17047002800D0704791
:100AE000F0B412291F4890F8744435D2042CFDD17B
:100AF000002401EB4105E90000EB410000F1CC01CD
:100B000004980D884FF6FE7635400D800E8A4FF61C
:100B1000FE773E400E820F8C4FF6FE7C0CEA0707F4
:100B20000F8403FA04FC4FEAEC1C0CF0010C4CEAB5
:100B300005050D8002FA04F5ED1105F001052E43BF
:100B40000E8200FA04F5ED1105F001052F430F8424
:100B5000641C891C082CD4DBF0BC70471C000240CC
:100B600000080140100000201C1002400C00002072
:100B700000366E010C08014004000240980000207D
:100B8000FFFF0000000000002DE9F84F4FF0000EBD
:100B900000246FF01F085A4A5A4BDFF86C914FF04F
:100BA0000F0A83460CE0906048688002D06854BF0A
:100BB00020EA07070743D7600EF1010E08F1040889
:100BC0000F6837FA0EF000F09880012000FA0EF658
:100BD0003740B742F0D1486838B301281AD002280C
:100BE0001DD003282ED0112816D012281AD0474D18
:100BF000A8421CBF464DA84217D0464DA8421CBF74
:100C0000454DA84211D0454DA8421CBF444DA842B5
:100C10000BD018E0CC6816E0CC68241D13E0CC683B
:100C2000083410E0CC680C340DE0886808B904245E
:100C300009E0012819BF0824CBF814600824CBF878
:100C4000106000E00024B7F5807F39BF58464FEAB6
:100C50008E0C0BF10400C4460AFA0CF60568B54385
:100C600004FA0CF6354305604868C000A4D5D9F8ED
:100C7000000040F00100C9F80000D9F8005005F06C
:100C8000010500954FEA8E0500984FEA9E0053F843
:100C9000206005F00C0C0AFA0CF526EA0505214E39
:100CA000B34508BF00260ED01F4EB34508BF01262E
:100CB00009D01E4EB34508BF022604D01C4EB345D2
:100CC0000CBF0326042606FA0CF6354343F82050E1
:100CD0004868C00310684CBF3843B8431060486888
:100CE000800350684CBF3843B84350604868C00226
:100CF00090684CBF3843B84355E7BDE8F18F00001A
:100D000000040140080001401810024000001110CA
:100D1000000012100000211000002210000031100D
:100D20000000321000080140000C0140001001409A
:100D30000014014008B9012070470268DFF88C11E7
:100D40008A181423B2FBF3F3DFF88411C1639B000C
:100D50000222036480F8212001680B6841688268E0
:100D6000D0F800C06FF30D130B43C1681343026941
:100D70000B434169134382690B43C16913430B431E
:100D8000CCF80030002282630121FFE780F82110B7
:100D900080F820200020704730B4C16B0A680168D9
:100DA0000B68046C0425A5402A4233D05D0731D579
:100DB0000A68930603D40A6822F004020A600168F4
:100DC000444A914208BF04211DD0434A914208BFC2
:100DD000402118D0414A914208BF4FF4806112D09F
:100DE0003F4A914208BF4FF480410CD03D4A9142A6
:100DF00008BF4FF4802106D03B4A91420CBF4FF40C
:100E000080014FF08061394A1160C16A002959D0D0
:100E100030BC08470225A5402A4238D09D0736D568
:100E20000A68930606D40A6822F00A020A600121C1
:100E300080F821100168274A914208BF02211DD085
:100E4000254A914208BF202118D0244A914208BF68
:100E50004FF4007112D0224A914208BF4FF4005162
:100E60000CD0204A914208BF4FF4003106D01E4AF0
:100E700091420CBF4FF400114FF000711B4A1160FA
:100E8000002180F82010816AE1B130BC08470825B4
:100E900005FA04F4224215D01A0713D50B6823F083
:100EA0000E030B600122016CC36B8A405A60012162
:100EB000816380F82110002180F82010016B09B1B6
:100EC00030BC084730BC704700000000F8FFFDBF91
:100ED00000000240080002401C00024030000240B6
:100EE00044000240580002406C00024004000240EE
:100EF00030B40346002093F82040012C08BF0220A4
:100F000018D093F821500124012D83F820400DD1F1
:100F100003290BD8DFE801F0020406089A6206E014
:100F2000DA6204E01A6302E05A6300E00120002163
:100F300083F8201030BC704710B5040001D10120A7
:100F400010BD94F83D0028B9002184F83C102046DB
:100F500000F02AF9FFE7022084F83D00211D2068F7
:100F600000F040F8012084F8460084F83E0084F840
:100F70003F0084F8400084F8410084F8420084F87F
:100F8000430084F8440084F8450084F83D000020C4
:100F900010BD84F83D0084F83C0010BD10B5044637
:100FA00094F83C00012801D1022010BD012084F8F2
:100FB0003C004AB1042A0BD0082A0DD00C2A04BFE9
:100FC000206800F0B8F80AE0206800F03DF806E07C
:100FD000206800F05FF802E0206800F083F800204D
:100FE000FFF7D9BF30B4644C0368A04218BFB0F11A
:100FF000804F05D0614A90421CBF614DA8420AD182
:101000004A6823F070031343A0421EBFB0F1804F23
:101010005A4A904202D05A4DA84203D1CA6823F4DA
:10102000407313434A6923F0800313430360A042D3
:101030008B68C3620A68826202D10969514A1160F1
:101040000123436130BC704770B4026A52085200F9
:101050000262066A446885690B688A6825F0730530
:101060001D4326F002061643434B98420BD1CA6833
:101070004B6926F0080624F4407416438A691C4321
:1010800026F00406144344608561496841630662A2
:1010900070BC704770B4026A374E22F010020262D0
:1010A000B042056A436884690A6824F4E64444EA65
:1010B00002248A6825F0200545EA02150DD1CA6888
:1010C0004E6925F0800545EA02158A6923F44063DC
:1010D000164325F0400543EA86034360846149686E
:1010E000816325E070B4026A22F480720262056AAC
:1010F0004368C4690A688E6824F0730414431E4A66
:1011000025F40075904245EA06250DD1CA684E695E
:1011100025F4006545EA02258A6923F44053164305
:1011200025F4806543EA06134360C4614968C163DE
:10113000056270BC704770B4026A0F4E22F4805290
:101140000262B042046A4268C3690D6823F4E64350
:1011500043EA05238D6824F4005444EA053404D19D
:101160004D6922F4804242EA85124260C3614968B7
:101170000164046270BC7047002C01400004004010
:1011800000080040302C014001F01F01036A4FF0BD
:10119000010C0CFA01FC23EA0C03036202FA01F1D0
:1011A000036A194301627047704700007CB500F084
:1011B00081F800F04BF82448016841F0100101600B
:1011C0000024026802F0100200920099026842F0C6
:1011D00020020260006800F0200000900098FFF7F5
:1011E0008FFAFFF74FFC00F077F8054600F074F82F
:1011F000064600F071F8FF2195FBF1F1C1EB0121EA
:101200006D1AFF2190FBF1F1C1EB0121401AEDB203
:10121000641C0095FF2296FBF2F2C2EB0222B61A82
:10122000C2B21220B4FBF0F000EBC005A4EB450104
:10123000F3B289B20020FFF750FCFFF735FB0A201C
:1012400000F098F8CDE700001810024000B58FB00C
:101250002822002105A800F0A1F8142200216846E8
:1012600000F09CF84FF480310022069107920D9116
:1012700001200590099002224FF4E0110C920E918A
:1012800005A8FEF733FF08B172B6FEE7022101910F
:101290000F204FF48061009000220391029204928B
:1012A00002216846FFF7B4F808B172B6FEE70FB046
:1012B00000BD000080B50748016841F010010160E1
:1012C0000320FFF7ADF90020FFF78AF900F070F86E
:1012D000002002BD00200240F0B42349D1F888600C
:1012E000D1F8845091F88000204B214C6FF00042DF
:1012F00028BB082004FB05352E461546B6FBF5F540
:10130000401E02FB1565F5D10E46102004FB053585
:101310001746B5FBF7F702FB17553560154656F82B
:10132000047B04FB0737B7FBF5F502FB1575401E80
:1013300046F8045BEAD1CE6F012081F8800004FBFF
:101340000535134606F01F06B5FBF3F351F82600EA
:1013500002FB135541F82650C1F88450C1F88800AB
:1013600020F04040F0BC7047880400205FF36E3CE2
:101370000D66190038B50446FFF72CF914F1010F7A
:10138000054602D0044908780419FFF723F9401BE9
:10139000A042FAD331BD00BF0000002010B50446C2
:1013A00010460A460146204600F01AF8204610BDB5
:1013B0000A4881B0016841F001010160026802F051
:1013C000010200920099426842F0805242604068F7
:1013D00000F080500090009801B070471810024053
:1013E00062F30F2262F31F42401810F0030308D08B
:1013F000C91A1FD3DB0748BF00F8012D28BF20F80A
:10140000022D130030B414461546103928BF20E9C8
:101410003C00FAD8490728BF20E90C0048BF40F833
:10142000042D890028BF20F8022D48BF00F8012DA7
:1014300030BC7047C91818BF00F8012DCB0728BF72
:1014400000F8012D7047000010B5074979441831A4
:10145000064C7C44163404E00A68081D1144884791
:101460000146A142F8D110BD0800000014000000A0
:101470002BF1FFFF5C0100004E0000000000002087
:1014800000F00DF8002801D0FFF7DEFFAFF3008079
:101490000020AFF30080FFF789FE00F002F8012082
:1014A000704700F001B800000746384600F002F827
:1014B000FBE7000080B5AFF30080024A110018205E
:1014C000ABBEFBE7260002000548014603B46846B0
:1014D00080F30988AFF30080AFF30080FFF7D0FFFF
:1014E000A5EDF5FEFEE7FEE7FEE7FEE7FEE7704747
:1014F0007047704700F000B802494A6808788218BF
:101500004A607047000000207047000000000000A3
:101510000000000001020304060708090148804793
:101520000148004709150008C9140008FFF7FEBF6D
:10153000FFF7FEBFFFF7FEBFFFF7FEBFFFF7FEBFDF
:10154000FFF7FEBFFFF7FEBFFFF7FEBFFFF7FEBFCF
:10155000FFF7FEBFFFF7FEBFFFF7FEBFFFF7FEBFBF
:10156000FFF7FEBFFFF7FEBFFFF7FEBFFFF7FEBFAF
:10157000FFF7FEBFFFF7FEBFFFF7FEBFFFF7FEBF9F
:10158000FFF7FEBFFFF7FEBFFFF7FEBFFFF7FEBF8F
:10159000FFF7FEBFFFF7FEBFFFF7FEBFFFF7FEBF7F
:1015A000FFF7FEBFFFF7FEBFFFF7FEBFFFF7FEBF6F
:1015B000FFF7FEBFFFF7FEBFFFF7FEBFFFF7FEBF5F
:1015C000FFF7FEBFFFF7FEBFFFF7FEBFFFF7FEBF4F
:1015D0000001F9000010FC000124F4810081008169
:1015E000008100810081008100810083000005816D
:0715F00000F8000001F90002
:04000005080014C912
:00000001FF
