:020000040800F2
:10000000180900207D140008451400084714000852
:10001000491400084B1400084D14000800000000AB
:100020000000000000000000000000004F14000865
:100030005114000800000000531400085514000873
:10004000991400089D140008A1140008A5140008C4
:10005000A9140008AD140008B1140008B514000874
:10006000B9140008BD140008C1140008C514000824
:10007000C9140008CD140008D1140008D5140008D4
:10008000D914000829090008DD140008E11400084B
:10009000E5140008E9140008ED140008F114000844
:1000A000F5140008F9140008FD14000801150008F3
:1000B0002F09000805150008091500080D1500088E
:1000C0001115000815150008191500081D15000860
:1000D0002115000825150008291500082D15000810
:1000E0003115000835150008391500082DE9F843C9
:1000F000040016D02078DFF84C64C10713D570686F
:1001000000F00C00042807D0706800F00C000828EC
:1001100041D17068C1033ED53068810303D5606862
:10012000002800F064812078DFF82874810719D551
:10013000706810F00C0F07D0706800F00C000828F1
:1001400061D17068C1035ED43068810703D520692E
:10015000012840F04C813168606921F0F80141EAE2
:10016000C00131602178080740F18180A069DFF883
:10017000E813002800F0A68001220A6000F01EFAB1
:100180000546706A810763D400F018FA401B022804
:10019000F7D903202EE16068B0F5803F04D13068C4
:1001A00040F48030306014E008B930680AE0B0F5FF
:1001B000A02F306806D140F480203060316841F4CF
:1001C000803105E020F480303060316821F48021F6
:1001D0003160606858B100F0F1F90546306881037C
:1001E000A1D400F0EBF9401B6528F7D3D1E700F06C
:1001F000E5F905463068810395D500F0DFF9401B2D
:100200006528F7D3C5E72069A8B10121396000F05E
:10021000D5F905463068810705D400F0CFF9401BB9
:100220000228F7D9B5E73068616920F0F80040EAA4
:10023000C100306096E7386000F0C0F905463168CB
:1002400088078FD500F0BAF9401B0228F7D9A0E73C
:10025000DFF8F4020168C9084FF47A72B1FBF2F2D8
:10026000009200BF0098411E00280091F9D120782B
:1002700041076ED5F0690025C10009D4F06940F04E
:100280008050F0610125F06900F0805000900098E6
:10029000DFF8C882D8F80000C10520D4D8F80000E3
:1002A00040F48070C8F8000000F088F98146D8F862
:1002B0000000C10513D400F081F9A0EB0900652806
:1002C000F5D366E7086000F079F90546706A8107A2
:1002D000CDD500F073F9401B0228F7D959E7E06843
:1002E000012808D008B9306A09E00528306A06D12B
:1002F00040F004003062306A40F0010005E0400840
:1003000040003062306A20F00400306241F28938E7
:10031000E06860B100F052F98146306A810713D479
:1003200000F04CF9A0EB09004045F6D331E700F0AE
:1003300045F98146306A810706D500F03FF9A0EB08
:1003400009004045F6D324E71DB1F06920F0805044
:10035000F061E06900284CD0716801F00C010829B7
:1003600038D002282AD100F047F8054630688101CC
:1003700005D500F023F9401B0228F7D909E7206AC8
:10038000B0F5803F05D17168A06821F400310143C8
:1003900071607268206A616A22F4741202430A432F
:1003A0007260012000F029F804463068810120D4F1
:1003B00000F004F9001B0228F7D9EAE600F01CF867
:1003C00004463068810114D500F0F8F8001B0228BB
:1003D000F7D9DEE601280AD07068226A00F480317D
:1003E000914202BF00F47010616A884201D001207E
:1003F00000E00020BDE8F2830020386600F0DEB89F
:100400002DE9F041040088464ED0554E00F077F8B3
:1004100002D200F06FF847D120684A4D810712D50B
:10042000400703D5696841F4E061696020780107FD
:1004300003D5686840F4605068606968A06821F07E
:10044000F001014369602178C80725D5606801285B
:1004500002D129688A0303E00228296802D18A01AF
:1004600002D421E08A071FD56968890840EA810023
:10047000686000F0A3F807466868616800F00C0047
:10048000B0EB810F08D000F099F8C01B41F2893120
:100490008842F1D303202BE0306800F0070080454C
:1004A00004D200F027F801D0012021E02078410794
:1004B00005D56A68E06822F4E06202436A60217848
:1004C000080706D56968206921F4605141EAC00136
:1004D000696000F019F86A6822491B4BC2F30312E5
:1004E000895CC84018601A48006800F06DF8002068
:1004F000BDE8F0813168C90848EAC101316030685F
:1005000000F0070040457047174910480A6802F09C
:100510000C03082B00D0704710B500BF14A4C2F321
:100520008343D203E35C08D50968584314A3C1F39D
:1005300040415A5CB0FBF2F010BD18460B494843ED
:1005400010BD0000001002400C00002000127A00D4
:100550000800002000004242800442420070004037
:10056000002002406C1400080410024000093D0005
:1005700002030405060708090A0B0C0D0E0F1010E4
:10058000010230B4002513E050F8042BD30744BF18
:10059000A9F101039A18091F042942F8045BFAD251
:1005A00013468C0744BF15809B1CC90748BF1D70AC
:1005B00050F8041B0029E7D130BC7047014840685F
:1005C000704700BF0000002038B50D4D0D4B2A7854
:1005D00004464FF47A711868B1FBF2F2B0FBF2F006
:1005E00000F054F850B9102C08D2002221464FF0E8
:1005F000FF3000F023F8AC60002032BD012032BD96
:10060000000000200C0000200901020002D42F4845
:10061000815470472E4B02F00F021A4402F8041C5A
:1006200070472C4B19684FF6FF020002114000F48E
:10063000E0600843284908431860704770B5254BAF
:100640001C68C4F302230124C3F10705052D2EBF46
:100650000F2504FA05F56D1E1E1D072E34BF00235D
:10066000DB1E2940994004FA03F3BDE870405B1E8D
:100670001A401143C8E7010007D4012200F01F010E
:10068000164B8A40400943F82020704710B5401EA1
:10069000B0F1807F01D3012010BD114C60600F21AB
:1006A0004FF0FF30FFF7B0FF0021A160072020606E
:1006B000002010BD010007D4012200F01F01094BEA
:1006C0008A40400943F820207047000000E400E021
:1006D00018ED00E00CED00E00000FA0500E100E09C
:1006E00010E000E080E200E02DE9F043DFF8A443F1
:1006F000DFF8A4938FB0606840F0040060600122CE
:10070000606800F0040000904FF480760099009239
:10071000019203210391002202926946DFF87C03D3
:1007200000F0D4F9216841F0010121601021206816
:1007300000F00100009000220098D9484FF4806733
:1007400041608260C26082614FF40058C0F800903E
:1007500000F07CF8002869D1D24809F13C01016021
:1007600010220023802142608360C160836100F019
:100770006DF800285AD1CC4D09F164002860102191
:1007800069600022AA60EA60AA612E616F61C5F803
:100790001C80284600F074FA002847D10FF2E912B5
:1007A0000021284600F054FB0FF255220221284672
:1007B00000F04EFB012200211120FFF73FFF112026
:1007C000FFF759FFA06840F00100A0604FF08041A2
:1007D000A068B64C00F001000090009861601D20F8
:1007E000B34920610A68B348B2FBF0F0431E9BB2E4
:1007F0000021A3606161E160201D00F049FBA8B900
:100800000021082208900A91099208A90022201DBF
:1008100000F066FB50B90021102201900391029272
:1008200001A90422201D00F05BFB08B101200AE0B1
:10083000022200211C20FFF701FF1C20FFF71BFFF5
:100840000120207000200FB0BDE8F08306614761F1
:10085000C0F81C8000F014BA2DE9F843934C2078BE
:100860000128FDD100214FF0804521701D20E86254
:10087000DFF82C72DFF8409292A14FF4D8734A4609
:10088000384600F06FF8874E8C494FF4D8734A46CB
:100890004FEA060000F066F8DFF80C828AA14FF4F8
:1008A000D8734A46404600F05DF88548F021016063
:1008B0004FF4702202604FF070630360D8F80000BC
:1008C000016841F00E01016039680A6842F00102D6
:1008D0000A60012231680B6843F001030B60016874
:1008E00041F001010160002028616068C16841F4A5
:1008F0008071C160C16841F40071C160C16841F498
:100900008061C1602846002100F0DCFB0122042147
:10091000284600F0D7FB60681D214162026842F062
:1009200001020260BDE8F1835F4800F0DBB980B5E9
:100930001C20FFF7BFFE5D4841680A6A41F21113AF
:100940001A4202BF0A6A40F244431A4203D10A68BB
:10095000520852000A60CA6852085200CA60012157
:10096000017001BD70B5046CC66B0125A5407560B2
:10097000046863604068102802D1A260E16070BD25
:10098000A160E26070BD000010B51120FFF792FE7B
:100990004349464C0868026852085200026000222F
:1009A000404800F026F8404800F023F86068C1682D
:1009B00021F48071C160C16821F40071C160C16817
:1009C00021F48061C1604FF08040002100F07AFB8B
:1009D000002204214FF0804000F074FB4FF0804172
:1009E00040F22720C8626068C16841F00101C1601F
:1009F00010BD0068016849084900016070470000A7
:100A0000FEE738B500240025009500230022A1B29E
:100A1000002000F005F8641CA1B21229F4D331BD06
:100A2000002800D070472DE9F041122930D2DDF8BE
:100A3000188000250E461827204807FB065600EBB5
:100A400046004FF6FE740688078AB0F820C026409C
:100A500006802740078204EA0C0C03FA05F4E4112F
:100A600004F0010426430680A0F820C002FA05F62F
:100A7000F61106F001063743078208FA05F7FF1161
:100A800007F001076D1C47EA0C04082D0484D1DB34
:100A9000BDE8F081141002401C0002400008014033
:100AA000480400208C040020D00400201000002006
:100AB0000C00002000366E010C080140640000208C
:100AC00004000240FFFF0000000000002DE9F8478D
:100AD0004FF0000E00245D4A5D4BDFF878814FF047
:100AE0000F0982460CE0D7683840D06006E0956078
:100AF0004D68AD02F7D5D0680743D7600EF1010EFF
:100B00000F6837FA0EF000F09F80012000FA0EF611
:100B10003740B742F2D1486838B301281AD00228CA
:100B20001DD003282ED0112816D012281AD04A4DD5
:100B3000A8421CBF494DA84217D0494DA8421CBF2E
:100B4000484DA84211D0484DA8421CBF474DA8426D
:100B50000BD018E0CC6816E0CC68241D13E0CC68FC
:100B6000083410E0CC680C340DE0886808B904241F
:100B700009E0012819BF0824CAF814600824CAF83B
:100B8000106000E00024B7F5807F03D250464FEAA2
:100B90008E0C05E0AEF108050AF104004FEA850C61
:100BA000056809FA0CF6B54304FA0CF635430560FE
:100BB0004868C000A2D5D8F8000040F00100C8F88D
:100BC0000000D8F8005005F0010500954FEA8E05A9
:100BD00000984FEA9E0053F8206005F00C0C09FACB
:100BE0000CF526EA0505224EB24508BF00260ED0B8
:100BF000204EB24508BF012609D01F4EB24508BF9E
:100C0000022604D01D4EB2450CBF0326042606FA68
:100C10000CF6354343F82050F8434D68ED03156852
:100C20004CBF3D43054015604D68AD0355684CBF52
:100C30003D43054055604D689668ED024CBF47EA5C
:100C4000060500EA060552E7BDE8F1870004014009
:100C5000080001401810024000001110000012109E
:100C6000000021100000221000003110000032109E
:100C700000080140000C0140001001400014014038
:100C800030B508B9012030BD0268DFF8A0118A181C
:100C9000142400F13803B2FBF4F4A400DFF890113F
:100CA0009C605960022280F8212001680C6841682C
:100CB000826805686FF30D140C43C1681443026920
:100CC0000C434169144382690C43C16914430C43CA
:100CD0002C6000221A60012380F8213080F8202047
:100CE000002030BD2DE9F84F00F12802042751699A
:100CF000554BD1F800E0056854492E68D2F818A089
:100D0000504CDFF83C81DFF83491DFF82CB1DFF88C
:100D100024C107FA0AF71EEA070F2DD077072BD553
:100D20002E68B60603D42E6826F004062E600568E9
:100D3000654508BF042318D05D4508BF402314D083
:100D40004D4508BF4FF480630FD0454508BF4FF4B1
:100D500080430AD0A54208BF4FF4802305D09D42AE
:100D60000CBF4FF480034FF080630B605168002983
:100D700058D0BDE8F44F0847022707FA0AF71EEAE1
:100D8000070F32D0B70730D52E68B60606D42E68C6
:100D900026F00A062E60012580F821500568654579
:100DA00008BF022318D05D4508BF202314D04D454D
:100DB00008BF4FF400730FD0454508BF4FF40053F0
:100DC0000AD0A54208BF4FF4003305D09D420CBFA6
:100DD0004FF400134FF000730B60002180F82010D7
:100DE0001168F9B1BDE8F44F0847082101FA0AF18A
:100DF0001EEA010F16D0310714D52B6823F00E031D
:100E00002B600124916953698C405C600121116160
:100E100080F82110002180F82010916811B1BDE800
:100E2000F44F0847BDE8F18F00000000F8FFFDBF58
:100E300000000240080002401C0002403000024056
:100E400044000240580002406C000240040002408E
:100E500030B50346002013F8204F012C01D10220A9
:100E600030BD5D780124012D1C700DD103290BD8F4
:100E7000DFE801F0020406089A6006E0DA6004E0A8
:100E80001A6102E05A6100E001200021197030BDB2
:100E900038B5040001D1012032BD00F01DF818B9A9
:100EA00000F016F800F01CF9FFE702206870211D21
:100EB000206800F03AF80120A872A870E870287144
:100EC0006871A871E871287268726870002032BD7C
:100ED000002129702046704704F13C05687870476E
:100EE00010B5044694F83C00012801D1022010BD41
:100EF000012084F83C004AB1042A0BD0082A0DD006
:100F00000C2A04BF206800F0B5F80AE0206800F061
:100F10003BF806E0206800F05CF802E0206800F092
:100F200081F8002084F83C0010BD70B5614E036864
:100F3000614C624DB04218BFB0F1804F03D0A8425F
:100F400018BFA04209D14A6823F070031343B0428E
:100F50001CBFB0F1804FA84201D0A04203D1CA68A3
:100F600023F4407313434A6923F08003134303605F
:100F7000B0428B68C3620A68826202D10969504A32
:100F800011600123436170BD70B5026A52085200BE
:100F90000262066A446885690B688A6825F07305F1
:100FA0001D4326F002061643424B98420BD1CA68F5
:100FB0004B6926F0080624F4407416438A691C43E2
:100FC00026F0040614434460856149684163066263
:100FD00070BD70B5026A374E22F010020262B04254
:100FE000056A436884690A6824F4E64444EA0224F2
:100FF0008A6825F0200545EA02150DD1CA684E69B8
:1010000025F0800545EA02158A6923F440631643FA
:1010100025F0400543EA86034360846149688163A3
:10102000056270BD70B5026A22F480720262056AC0
:101030004368C4690A688E6824F0730414431D4A27
:1010400025F40075904245EA06250DD1CA684E691F
:1010500025F4006545EA02258A6923F440531643C6
:1010600025F4806543EA06134360C4614968C1639F
:10107000056270BD70B5026A0E4E22F480520262A3
:10108000B042046A4268C3690D6823F4E64343EA48
:1010900005238D6824F4005444EA053404D14D69D5
:1010A00022F4804242EA85124260C36149680164C9
:1010B000046270BD002C01400008004000040040A4
:1010C000302C014010B501F01F01036A01248C404F
:1010D000A343036202FA01F1036A1943016210BDDE
:1010E000704700007CB500F07FF800F049F8234815
:1010F000016841F0100101600024026802F0100252
:1011000000920099026842F020020260006800F03C
:10111000200000900098FFF7E7FAFFF772FC00F05C
:1011200075F8054600F072F8064600F06FF8FF21EA
:1011300095FBF1F1FF22641CC1EB012196FBF2F259
:101140006D1AFF2190FBF1F1C1EB0121401AC2EBB6
:101150000222EDB2B61AC2B21220B4FBF0F100FBCB
:1011600011410095F3B289B20020FFF759FCFFF757
:1011700073FB0A2000F098F8CFE700001810024037
:1011800000B58FB02822002105A800F0A1F8142294
:101190000021684600F09CF84FF48031002206914F
:1011A00007920D9101200590099002224FF4E01161
:1011B0000C920E9105A8FEF799FF08B172B6FEE7F2
:1011C000022101910F204FF48061009000220391D1
:1011D0000292049202216846FFF712F908B172B632
:1011E000FEE70FB000BD000080B50748016841F080
:1011F000100101600320FFF714FA0020FFF7E4F963
:1012000000F070F8002002BD00200240F0B4224936
:10121000224AD1F8807056681078214C214D6FF029
:10122000004320BB082005FB064637461E46B7FB99
:10123000F6F6401E03FB1676F5D10F46102005FB8F
:1012400006469C46B6FBFCFC03FB1C6647F8046B99
:10125000401E05FB0646B4461E46BCFBF6F603FBE5
:1012600016C647F8046BEAD1CF6F0120107005FB5A
:1012700006461C4607F01F07B6FBF4F451F827009A
:1012800003FB146641F827605660C1F8800020F027
:101290004040F0BC70470000C40300205C00002008
:1012A0005FF36E3C0D66190038B50446FFF786F90A
:1012B00014F1010F054602D0044908780419FFF71C
:1012C0007DF9401BA042FAD331BD00BF00000020D1
:1012D00010B5044610460A460146204600F01AF8AA
:1012E000204610BD0A4881B0016841F0010101604B
:1012F000026802F0010200920099426842F08052B6
:101300004260406800F080500090009801B0704743
:101310001810024062F30F2262F31F42401810F0CF
:10132000030308D0C91A1FD3DB0748BF00F8012DFB
:1013300028BF20F8022D130030B41446154610398A
:1013400028BF20E93C00FAD8490728BF20E90C0053
:1013500048BF40F8042D890028BF20F8022D48BF5F
:1013600000F8012D30BC7047C91818BF00F8012DD6
:10137000CB0728BF00F8012D704730B5016884689D
:101380004218416802EB5103C90703D54C4401E000
:10139000491C05D19A420AD012F9011B12F8015BCF
:1013A000002904F8015BF3D4491EF7D5F2E70C30AD
:1013B00030BD000010B5074979441831064C7C4413
:1013C000163404E00A68081D114488470146A1420A
:1013D000F8D110BD0800000024000000A7F1FFFFB5
:1013E000B004000064000020000000008FFFFFFF39
:1013F0004C010000260000000000002000F00DF865
:10140000002801D0FFF7D6FFAFF300800020AFF334
:101410000080FFF767FE00F002F80120704700F03F
:1014200001B800000746384600F002F8FBE700006C
:1014300080B5AFF30080024A11001820ABBEFBE775
:1014400026000200FEE7FEE7FEE7FEE7FEE7704744
:101450007047704700F000B802494A68087882185F
:101460004A60704700000020704700000000000044
:101470000000000001020304060708090148804734
:1014800001480047691400088D140008AFF300807C
:10149000AFF30080FFF7B2FFFFF7FEBFFFF7FEBF1D
:1014A000FFF7FEBFFFF7FEBFFFF7FEBFFFF7FEBF70
:1014B000FFF7FEBFFFF7FEBFFFF7FEBFFFF7FEBF60
:1014C000FFF7FEBFFFF7FEBFFFF7FEBFFFF7FEBF50
:1014D000FFF7FEBFFFF7FEBFFFF7FEBFFFF7FEBF40
:1014E000FFF7FEBFFFF7FEBFFFF7FEBFFFF7FEBF30
:1014F000FFF7FEBFFFF7FEBFFFF7FEBFFFF7FEBF20
:10150000FFF7FEBFFFF7FEBFFFF7FEBFFFF7FEBF0F
:10151000FFF7FEBFFFF7FEBFFFF7FEBFFFF7FEBFFF
:10152000FFF7FEBFFFF7FEBFFFF7FEBFFFF7FEBFEF
:10153000FFF7FEBFFFF7FEBFFFF7FEBF0001F90098
:0F1540000010FC000324F40001B1000001FD00C5
:040000050800148D4E
:00000001FF
